:100000000C946A020C9487020C9487020C94870269
:100010000C9487020C9487020C9487020C9487023C
:100020000C9487020C9487020C9487020C9487022C
:100030000C9487020C9487020C9487020C9487021C
:100040000C9487020C9487020C9487020C9487020C
:100050000C9487020C9487020C9487020C948702FC
:100060000C9487020C9487020A0D52656164435315
:100070004428292C2073645F776169745F666F720E
:100080005F646174612072657475726E73202530CF
:1000900032782E002025730A0D00253032582000BA
:1000A0002025730A0D253034583A20000A0D436F7D
:1000B0006E74656E7473206F6620626C6F636B2064
:1000C0006275666665723A0020436172642043433C
:1000D000206661696C65642100204361726420457B
:1000E0004343206661696C65642100204164647249
:1000F000657373206973206F7574206F6620726159
:100100006E676521002043617264206973206C6F03
:10011000636B656421000A0D446174652065727229
:100120006F723A006C6F636B656400756E6C6F6321
:100130006B6564000D0A50617373776F726420738E
:1001400074617475733A20000D0A436865636B69C6
:100150006E672074656D702D6C6F636B20737461B6
:1001600074652E2E2E000D0A436865636B696E67F9
:10017000205057442073746174652E2E2E00646FD6
:100180006E652E006661696C656421202043617292
:1001900064206973207374696C6C20756E6C6F6376
:1001A0006B65642E000D0A547279696E6720746F56
:1001B000206C6F636B20636172642E2E2E00646F5F
:1001C0006E652E006661696C656421202043617252
:1001D00064206973207374696C6C206C6F636B6549
:1001E000642E000D0A547279696E6720746F207551
:1001F0006E6C6F636B20636172642E2E2E007468C8
:10020000652063617264206973206E6F74206C6F67
:10021000636B656400646F6E652E006661696C6572
:100220006421202043617264206973207374696CB7
:100230006C206C6F636B65642E00706C6561736518
:1002400020776169742E2E2E00706C6561736520B5
:10025000776169742E2E2E000D0A547279696E67CB
:1002600020746F204552415345205344204341524E
:10027000442E2E2E000D0A5465737420726561643D
:10028000206F6620626C6F636B2030206F6E20538E
:100290004420636172642E2E2E006661696C656471
:1002A0003B20756E61626C6520746F2072656164BD
:1002B000204353442E006661696C65643B2072657F
:1002C00073706F6E7365207761732025642E0066EE
:1002D00061696C65643B2063616E6E6F742072654A
:1002E00061642043534420746F20636F6E666972AB
:1002F0006D2E00646F6E652E000D0A436C65617291
:10030000696E672074656D706F72617279206C6FB1
:10031000636B206F6E20534420636172642E2E2E17
:10032000006661696C65643B20756E61626C652076
:10033000746F2072656164204353442E00666169C6
:100340006C65643B20726573706F6E7365207761B6
:10035000732025642E006661696C65643B206361CF
:100360006E6E6F7420726561642043534420746F15
:1003700020636F6E6669726D2E00646F6E652E006D
:100380000D0A53657474696E672074656D706F72C1
:10039000617279206C6F636B206F6E205344206311
:1003A0006172642E2E2E000D0A556E61626C6520FE
:1003B000746F2072656164204353442E00253032EF
:1003C0005820000D0A434944203D20002530325872
:1003D00020000D0A435344203D2000253032582090
:1003E000000D0A4F4352203D20000D0A4361726404
:1003F0002074797065202564000A0D0A0D43616E32
:100400006E6F7420696E697469616C697A652063C6
:100410006172642E20204D616B65207375726520BA
:10042000746865206361726420697320706C7567FD
:1004300067656420696E2070726F7065726C792ECA
:100440000072202D20526561640D0A0045202D2088
:1004500045726173650D0A0050202D205061737341
:10046000776F7264204C6F636B0D0A0070202D2033
:1004700050617373776F726420556E6C6F636B0D90
:100480000A006C202D205772697465204C6F636BD5
:100490000D0A0075202D20577269746520556E6C09
:1004A0006F636B0D0A003F202D20534420696E6658
:1004B0006F0D0A000D0A53444C6F636B6572322E48
:1004C000310D0A00466F7572746820416D656E6467
:1004D0006D656E7411241FBECFEFD8E0DEBFCDBFB7
:1004E00011E0A0E0B1E0E4EAF8E102C005900D926D
:1004F000AE31B107D9F724E0AEE1B1E001C01D9201
:10050000A336B207E1F70E9491040C94500C0C94AE
:1005100000002A9A08958EBD0DB407FEFDCF8EB55A
:100520000895E4ECF4E0A5E2B3E080E18A0F949151
:100530009D9331968A13FBCF80E180933C0408950C
:10054000FF920F931F93CF93DF93C82FD42F152FB4
:10055000062FF72E87FF0AC040E050E0BA0187E778
:100560000E94A002823008F044C0CF770E94890226
:100570008FEF0E948B022A988FEF0E948B028C2FA4
:1005800080640E948B028F2D0E948B02802F0E941C
:100590008B02812F0E948B028D2F0E948B02C03410
:1005A00021F0C83421F081E003C085E901C087E86B
:1005B0000E948B021AE08FEF0E948B02D82F87FDDA
:1005C00003C0C13521F414C01150A9F7FACFCD34BE
:1005D00079F088EB8C0F833058F08C2F8F7E8A3621
:1005E00039F0CB3529F00E9489028FEF0E948B02EF
:1005F0008D2FDF91CF911F910F91FF90089541E0D2
:1006000050E060E070E080E50E94A00240E050E031
:10061000BA018AE60E94A002811108C08EEF0E94F2
:100620008B0288E00E948B0280E008958FEF08958E
:10063000CF93DF9340E050E0BA018DE40E94A00226
:10064000C5E3D3E088838FEF0E948B0289838FEF0D
:100650000E948B0280E0DF91CF910895CF93DF93CA
:10066000C4E6D0E08FEF0E948B028F3F11F42197F8
:10067000C9F7DF91CF9108951F93CF93DF93CDE317
:10068000D4E0FE011C2F105F11921E13FDCF40E03D
:1006900050E0BA0189E40E94A0020E942E038E3F1E
:1006A00091F0282F082E000C330B3F938F9388E690
:1006B00090E09F938F930E9472090F900F900F907C
:1006C0000F908FEF0AC08FEF0E948B0289931C134B
:1006D000FACF8FEF0E948B0280E0DF91CF911F91C4
:1006E000089520E297FF02C05A9A06C05A986115F1
:1006F00071058105910579F03FE748E351E03150FC
:1007000040405040E1F700C00000660F771F881F8F
:10071000991F215039F708955A985B9880914B049E
:1007200084FF02C05A9A08955B9A0895EF92FF924F
:100730000F931F93CF93DF9340E050E0BA018BE516
:100740000E94A002882311F08FEF34C08EEF0E9428
:100750008B020DE314E0C0E07801F80181918F0174
:100760000E948B02F7018081EC2FF0E0EE0FFF1F5B
:10077000E827E55CFC4FC081F4E00C341F0761F70B
:100780008C2F880F8F5F0E948B028FEF0E948B024D
:100790008FEF0E948B02CFEFDFEF8FEF0E948B0273
:1007A000811103C02197C9F7CFCF81E0CD2B09F08C
:1007B00080E08195DF91CF911F910F91FF90EF9095
:1007C0000895CF93DF93C82FC77040E050E0BA017F
:1007D0008AE60E94A002882311F08FEF34C08EEFCA
:1007E0000E948B028C2F0E948B0280913C040E94FD
:1007F0008B02C0E0D0E080913C0490E0C817D9079C
:1008000028F4FE01EB5DFC4F808101C08FEF0E9458
:100810008B022196C11582E0D80769F78FEF0E94FD
:100820008B028FEF0E948B02CFEFDFEF8FEF0E94E2
:100830008B02811103C02197C9F7CFCF81E0CD2B67
:1008400009F080E08195DF91CF9108951F93CF93B8
:10085000DF93109221011092220110922301109235
:10086000240180913B048230D1F44AEA51E060E0F7
:1008700070E088E40E94A002882311F08FEF22C06C
:10088000C1E2D1E01C2F1C5F8FEF0E948B02899385
:100890001C13FACF8FEF0E948B0280E013C040E060
:1008A00050E0BA018AE70E94A0028111E7CFC1E2BD
:1008B000D1E01C2F1C5F8FEF0E948B0289931C13C9
:1008C000FACFE8CFDF91CF911F910895CF93C82F32
:1008D0008A3019F48DE00E9466048091C00085FF83
:1008E000FCCFC093C600CF9108958091C00087FFD0
:1008F000FCCF8091C60008951092C5008CE08093D3
:10090000C400E0ECF0E080818D7F808386E08093FE
:10091000C20088E18093C10008958091C000807872
:100920000895CF93DF93CDB7DEB764970FB6F894F1
:10093000DEBF0FBECDBF229A0E94890285B18862B8
:1009400085B984B1886284B92C9A83E58CBD5A98A4
:10095000529A5B98539A87B1887F87B988B187602C
:1009600088B90E947C048FE091E0909360048093AA
:100970005F0421E031E030935E0420935D049093A6
:10098000620480936104789484EB94E09F938F9346
:100990000E94720986EA94E09F938F930E947209E5
:1009A00083E994E09F938F930E94720982E894E018
:1009B0009F938F930E9472098CE694E09F938F938C
:1009C0000E94720988E594E09F938F930E947209B8
:1009D0008CE494E09F938F930E94720981E494E0E9
:1009E0009F938F930E947209EBE3F3E00FB6F894A4
:1009F000DEBF0FBECDBF80E090E039E8282F87FD35
:100A00002327208347E050E06081262F220F66FDD8
:100A10002327208341505109B9F70196319681155A
:100A2000A1E09A0759F70DE414E0005F81E291E03C
:100A300024E0280F2A8B8DE394E020E1280F2B8BF4
:100A40008FE798E3A1E081509040A040E1F700C01B
:100A500000000E948D04882309F43BC380915D044B
:100A600090915E040E943409853709F426C38C36C0
:100A700009F425C38F3309F424C3823709F423C34F
:100A8000803709F422C3803509F421C3853409F085
:100A900020C31AE080912001181709F40BC383309A
:100AA00009F008C310923B040E9489028AE0E82EF4
:100AB000F12C8FEF0E948B02B1E0EB1AF108C9F71D
:100AC000B0E1EB2EF12C40E050E0BA0180E40E944E
:100AD000A002813009F45CC3E1E0EE1AF10899F755
:100AE00089EF93E09F938F930E94720960E078EC06
:100AF000CB010E9471030F900F90143009F0B5C024
:100B00005A985B9880913B041F928F938AEE93E0F2
:100B10009F938F930E9472090E9426040E943C03B7
:100B20000F900F900F900F9081119CC0FDE4EF2E5D
:100B3000F4E0FF2EF70111920E13FDCF40E050E0DC
:100B4000BA018AE40E94A0020E942E038E3F09F09F
:100B500089C0EDE4AE2EE4E0BE2E8FEF0E948B0242
:100B6000D5018D935D010A13F8CF8FEF0E948B02A0
:100B70000E941803811176C081EE93E09F938F93BA
:100B80000E9472090F900F9061E2A62E61E0B62ECE
:100B90007BED872E73E0972EF50181915F011F9207
:100BA0008F939F928F920E9472090F900F900F90D7
:100BB0000F902A892A11F0CF82ED93E09F938F93B3
:100BC0000E9472090F900F904DE3A42E44E0B42EC2
:100BD0005CEC852E53E0952ED5018D915D011F9221
:100BE0008F939F928F920E9472090F900F900F9097
:100BF0000F902B892A11F0CF83EC93E09F938F9372
:100C00000E9472090F900F903DEBA32E33E0B32E9C
:100C1000D7018D917D011F928F93BF92AF920E9459
:100C200072090F900F900F900F900E11F1CF0E944C
:100C3000180384E391E09F938F930E94720980913F
:100C400036030F900F9080FD03C08BE291E0FBC153
:100C500084E291E09F938F930E9472095A9A0F90B9
:100C60000F9028C287EA93E0BCC0113069F55A980A
:100C70005B9880E893E09F938F930E9472090E9493
:100C80003C030F900F9081111CC080914B04806138
:100C900080934B040E94960381110EC00E9426048B
:100CA0000E943C03811105C00E948C038AE793E0F7
:100CB00098C086E593E095C01F928F938DE393E0F3
:100CC0002FC081E293E03DC0123009F044C05A9831
:100CD0005B9889EF92E09F938F930E9472090E9424
:100CE0003C030F900F9081112AC080914B048F7E9E
:100CF00080934B040E94960381110EC00E9426042B
:100D00000E943C03811105C00E948C0383EF92E096
:100D100068C08FEC92E065C01F928F9386EB92E0E3
:100D20009F938F930E94720960E070E080E095EAE3
:100D30000E9471030F900F900F900F90BBC18AE932
:100D400092E09F938F930E94720960E078ECCB0150
:100D50000E94710384CF153009F0D7C085E792E077
:100D60009F938F930E94720940E050E0BA0181E5A1
:100D70000E94A0020F900F9081119CC10E942E032F
:100D8000F82EBEEF8B1791F1807E09F093C186E1BA
:100D900091E09F938F930E9472090F900F90F4FE41
:100DA00008C085E091E09F938F930E9472090F9095
:100DB0000F90F3FE08C08BEE90E09F938F930E94FC
:100DC00072090F900F90F2FE08C089ED90E09F939A
:100DD0008F930E9472090F900F90F1FE6BC188EC07
:100DE00090E09F938F930E94720939CF25E2222EC3
:100DF00021E0322E51018FEF0E948B02F501819389
:100E00005F01F5E2AF16F3E0BF06A9F78FEF0E948E
:100E10008B028FEF0E948B02198A19828CEA90E074
:100E20009F938F930E9472090F900F90C12CD12C29
:100E3000760190EAA92E90E0B92E260137012FE025
:100E4000422255246624772441145104610471041C
:100E500099F4FF92EF92DF92CF9281E090E08C0FB5
:100E60009D1F9F938F93BF92AF920E9472090FB6FE
:100E7000F894DEBF0FBECDBFF10180811F928F932A
:100E8000AAE9B0E0BF93AF930E947209D1012D91FE
:100E90001D01822E912CC4012C8B0E942C090F90D5
:100EA0000F900F900F902C89892B39F4B0E38B1A97
:100EB0009108EAE08E16910438F4E1E0F0E0EC0FDE
:100EC000FD1FE40DF51D07C0E1E0F0E0EC0FFD1F94
:100ED000E40DF51D2EE220838FEFC81AD80AE80A28
:100EE000F80AC11492E0D906E104F10409F0A5CF93
:100EF000A1E0B0E0AC0FBD1FBF93AF9384E990E0D9
:100F00009F938F930E94720915CF1A3009F04BC03E
:100F100088E592E09F938F930E9472095A985B989C
:100F20000E941803809136030F900F9080FF38C005
:100F30000E94FF0289E492E09F938F930E947209BE
:100F4000BFEFE9E6F8E1B150E040F040E1F700C062
:100F500000000E941803809136030F900F9080FFCD
:100F600015C00E94FF028AE392E09F938F930E9434
:100F700072092FEF89E698E1215080409040E1F717
:100F800000C000000E9418030F900F90809136035C
:100F900080FF03C08BE192E05DCE85E192E053C01B
:100FA0008EEF91E050C0173051F55A985B980E942F
:100FB00018038091360380FF61C083EE91E09F9318
:100FC0008F930E9472090E94910282E00E94E103C5
:100FD0000E941803809136030F900F9080FF05C088
:100FE00082E00E94E1030E9418038091360380FF93
:100FF00003C084EC91E02ECE8EEB91E024C016303D
:1010000059F55A985B980E9418038091360380FD29
:1010100037C085EA91E09F938F930E9472090E94E6
:10102000910281E00E94E1030E94180384E00E9483
:10103000E1030E941803809136030F900F9080FD0A
:1010400008C084E891E09F938F930E9472095B9A95
:1010500006CE8EE791E0FECD1830A1F45A985B9849
:1010600086E691E09F938F930E9472090E94180375
:10107000809136030F900F9080FD02C05B9A1AC0DA
:101080005A9A18C01930B1F488E491E09F938F9375
:101090000E9472090E9426040E943C030F900F9048
:1010A000811103C00E948C0305C060E078ECCB0185
:1010B0000E94710310932001C3CC12E0EBCC11E02D
:1010C000E9CC14E0E7CC15E0E5CC17E0E3CC16E082
:1010D000E1CC86B1482F4770473009F44DC082FDFE
:1010E00036C09091000192FD29C020911E013091DF
:1010F0001F012F5F3F4F30931F0120931E01213BA3
:10110000310530F010921F0110921E011AE03DC00F
:1011100080FD08C090FF06C010921F0110921E01B2
:1011200016E033C081FF02C013E02FC091FFFCCF57
:1011300010921F0110921E0117E027C010921F018C
:1011400010921E018370833079F718E01EC0109250
:101150001F0110921E018370823031F480910001D2
:1011600080FFE2CF11E011C08130F1F680910001E3
:1011700081FFDACF12E009C010921F0110921E0108
:101180008091000182FDD0CF19E04093000182CC14
:1011900040E052E060E070E080E50E94A0024AEA90
:1011A00051E060E070E088E40E94A002813091F19B
:1011B00040E050E0BA018AE70E94A002813031F598
:1011C0008FEF0E948B028FEF0E948B028FEF0E94A5
:1011D0008B028FEF0E948B02A0E2EA2EAEE4FA2E81
:1011E00040E050E0BA0181E40E94A002882321F08F
:1011F00021E0E21AF108A1F740E052E060E070E07F
:1012000080E50E94A00281E080933B048FEF0E9462
:101210008B0273CC8FEF0E948B028FEF0E948B02A8
:101220008FEF0E948B028FEF0E948B0280E2E82EEC
:101230008EE4F82E40E050E060E070E489EE0E9419
:10124000A002882321F0F1E0EF1AF10899F782E07B
:10125000DBCF85FD0C946A0B806291110C946A0BB4
:1012600081568A51D8F70895CF93DF93EC012B81F3
:1012700020FF33C026FF0AC02F7B2B838E819F81E6
:1012800001969F838E838A8190E029C022FF0FC040
:10129000E881F9818081082E000C990B009719F4E0
:1012A00020622B831AC03196F983E8830EC0EA8549
:1012B000FB85099597FF09C02B81019611F080E20B
:1012C00001C080E1822B8B8308C02E813F812F5F7C
:1012D0003F4F3F832E83992702C08FEF9FEFDF910F
:1012E000CF910895A0E0B0E0E8E7F9E00C94270C76
:1012F000AE01495F5F4FDA016D917D91AD010DE562
:1013000014E0F80182819381DC0113962C911397EC
:10131000286013962C930E949809D8011296ED919B
:10132000FC9113972381277F2383E4E00C94430CE3
:10133000ACE0B0E0EEE9F9E00C94190C7C016B0133
:101340008A01FC0117821682838181FFBDC1CE0113
:1013500001964C01F7019381F60193FD859193FF6E
:1013600081916F01882309F4ABC1853239F493FD73
:10137000859193FF81916F01853229F4B70190E047
:101380000E94830BE7CF512C312C20E02032A0F4B7
:101390008B3269F030F4803259F0833269F4206185
:1013A0002CC08D3239F0803339F4216026C02260A0
:1013B000246023C0286021C027FD27C030ED380FEE
:1013C0003A3078F426FF06C0FAE05F9E300D112413
:1013D000532E13C08AE0389E300D1124332E206224
:1013E0000CC08E3221F426FD6BC1206406C08C3601
:1013F00011F4206802C0883641F4F60193FD85910E
:1014000093FF81916F018111C1CF982F9F7D9554DA
:10141000933028F40C5F1F4FFFE3F9830DC0833630
:1014200031F0833771F0833509F05BC022C0F801D9
:10143000808189830E5F1F4F44244394512C5401B3
:1014400015C03801F2E06F0E711CF801A080B18068
:1014500026FF03C0652D70E002C06FEF7FEFC5016E
:101460002C870E94780B2C0183012C852F77222E4C
:1014700017C03801F2E06F0E711CF801A080B18036
:1014800026FF03C0652D70E002C06FEF7FEFC5013E
:101490002C870E946D0B2C012C852068222E830145
:1014A00023FC1BC0832D90E048165906B0F4B70109
:1014B00080E290E00E94830B3A94F4CFF50127FC80
:1014C000859127FE81915F01B70190E00E94830B17
:1014D00031103A94F1E04F1A51084114510471F758
:1014E000E5C0843611F0893639F5F80127FF07C0C9
:1014F00060817181828193810C5F1F4F08C0608180
:101500007181072E000C880B990B0E5F1F4F2F76F1
:10151000722E97FF09C090958095709561957F4FC9
:101520008F4F9F4F2068722E2AE030E0A4010E9466
:10153000BB0BA82EA81844C0853729F42F7EB22EE5
:101540002AE030E025C0F22FF97FBF2E8F36C1F0A0
:1015500018F4883579F0B4C0803719F0883721F055
:10156000AFC02F2F2061B22EB4FE0DC08B2D846032
:10157000B82E09C024FF0AC09F2F9660B92E06C05E
:1015800028E030E005C020E130E002C020E132E098
:10159000F801B7FE07C060817181828193810C5F81
:1015A0001F4F06C06081718180E090E00E5F1F4F89
:1015B000A4010E94BB0BA82EA818FB2DFF777F2E3D
:1015C00076FE0BC0372D3E7FA51450F474FE0AC082
:1015D00072FC08C0372D3E7E05C0BA2C372D03C0E3
:1015E000BA2C01C0B52C34FF0DC0FE01EA0DF11D6F
:1015F0008081803311F4397E09C032FF06C0B39474
:10160000B39404C0832F867809F0B39433FD13C0DC
:1016100030FF06C05A2CB31418F4530C5B18B32CCB
:10162000B31468F4B70180E290E03C870E94830B1A
:10163000B3943C85F5CFB31410F43B1801C0312CA2
:1016400034FF12C0B70180E390E03C870E94830B17
:101650003C8532FF17C031FD03C088E790E002C02F
:1016600088E590E0B7010CC0832F867859F031FFF0
:1016700002C08BE201C080E237FD8DE2B70190E04D
:101680000E94830BA51438F4B70180E390E00E9418
:10169000830B5A94F7CFAA94F401EA0DF11D8081CF
:1016A000B70190E00E94830BA110F5CF332009F41D
:1016B00051CEB70180E290E00E94830B3A94F6CFBE
:1016C000F7018681978102C08FEF9FEF2C96E2E1B0
:1016D0000C94350C992788270895FC0105906150DA
:1016E00070400110D8F7809590958E0F9F1F089538
:1016F000FC016150704001900110D8F780959095E1
:101700008E0F9F1F08950F931F93CF93DF93FB01BD
:10171000238121FD03C08FEF9FEF28C022FF16C059
:1017200046815781248135814217530744F4A081B3
:10173000B1819D012F5F3F4F318320838C932681A0
:1017400037812F5F3F4F3783268310C0EB01092F6E
:10175000182F0084F185E02D0995892BE1F68E8103
:101760009F8101969F838E83812F902FDF91CF9150
:101770001F910F910895FA01AA27283051F12031C5
:1017800081F1E8946F936E7F6E5F7F4F8F4F9F4F15
:10179000AF4FB1E03ED0B4E03CD0670F781F891F57
:1017A0009A1FA11D680F791F8A1F911DA11D6A0F25
:1017B000711D811D911DA11D20D009F468943F91D8
:1017C0002AE0269F11243019305D3193DEF6CF01D7
:1017D0000895462F4770405D4193B3E00FD0C9F79D
:1017E000F6CF462F4F70405D4A3318F0495D31FD0A
:1017F0004052419302D0A9F7EACFB4E0A69597955D
:10180000879577956795BA95C9F700976105710532
:1018100008959B01AC010A2E06945795479537957C
:101820002795BA95C9F7620F731F841F951FA01DD6
:1018300008952F923F924F925F926F927F928F9274
:101840009F92AF92BF92CF92DF92EF92FF920F934F
:101850001F93CF93DF93CDB7DEB7CA1BDB0B0FB659
:10186000F894DEBF0FBECDBF09942A883988488816
:101870005F846E847D848C849B84AA84B984C884AC
:10188000DF80EE80FD800C811B81AA81B981CE0FA3
:10189000D11D0FB6F894DEBF0FBECDBFED01089588
:0418A000F894FFCFEA
:1018A40007000000010000000000007504000000B3
:0E18B4000000020000000066040000000000BA
:00000001FF
